{
  "contractName": "autorizador_de_electores",
  "abi": [
    {
      "inputs": [
        {
          "name": "donde_reside_el_contador_de_votos",
          "type": "address"
        },
        {
          "name": "donde_reside_el_verificador_de_vigencias",
          "type": "address"
        }
      ],
      "payable": false,
      "stateMutability": "nonpayable",
      "type": "constructor"
    },
    {
      "anonymous": false,
      "inputs": [
        {
          "indexed": false,
          "name": "al_digerir_su_credencial_se_obtuvo",
          "type": "bytes"
        }
      ],
      "name": "elector_autorizado",
      "type": "event"
    },
    {
      "anonymous": false,
      "inputs": [
        {
          "indexed": false,
          "name": "a_causa_de",
          "type": "string"
        },
        {
          "indexed": false,
          "name": "al_digerir_su_credencial_se_obtuvo",
          "type": "bytes"
        }
      ],
      "name": "elector_vetado",
      "type": "event"
    },
    {
      "constant": false,
      "inputs": [
        {
          "name": "por_el_candidato",
          "type": "string"
        },
        {
          "name": "con_credencial",
          "type": "bytes"
        }
      ],
      "name": "procesar_voto",
      "outputs": [],
      "payable": false,
      "stateMutability": "nonpayable",
      "type": "function"
    }
  ],
  "bytecode": "0x608060405234801561001057600080fd5b506040516040806103e0833981018060405281019080805190602001909291908051906020019092919050505081600160006101000a81548173ffffffffffffffffffffffffffffffffffffffff021916908373ffffffffffffffffffffffffffffffffffffffff16021790555080600260006101000a81548173ffffffffffffffffffffffffffffffffffffffff021916908373ffffffffffffffffffffffffffffffffffffffff1602179055505050610310806100d06000396000f300608060405260043610610041576000357c0100000000000000000000000000000000000000000000000000000000900463ffffffff16806324da4ef714610046575b600080fd5b34801561005257600080fd5b50610097600480360381019080803590602001908201803590602001919091929391929390803590602001908201803590602001919091929391929390505050610099565b005b600015156000838360405180838380828437820191505092505050908152602001604051809103902060009054906101000a900460ff161515141561025357600160009054906101000a900473ffffffffffffffffffffffffffffffffffffffff1673ffffffffffffffffffffffffffffffffffffffff1663ede0e15585856040518363ffffffff167c01000000000000000000000000000000000000000000000000000000000281526004018080602001828103825284848281815260200192508082843782019150509350505050602060405180830381600087803b15801561018357600080fd5b505af1158015610197573d6000803e3d6000fd5b505050506040513d60208110156101ad57600080fd5b81019080805190602001909291905050505060016000838360405180838380828437820191505092505050908152602001604051809103902060006101000a81548160ff0219169083151502179055507f93f46557cfd3cb0994339f8c06ba6a152d3783fe5379fa157caa984187c681db8282604051808060200182810382528484828181526020019250808284378201915050935050505060405180910390a16102de565b7f119fcdbffadd82675a25fbc79751f784f56aed23252fc5f271520030db3d286f8282604051808060200180602001838103835260188152602001807f686162657220656d697469646f20796120756e20766f746f00000000000000008152506020018381038252858582818152602001925080828437820191505094505050505060405180910390a15b505050505600a165627a7a723058205fbc65ebed4afd501f028638c6346fd92e350265ebe62c8a4afe6639ea955d5f0029",
  "source": "pragma solidity ^0.4.17;\r\n\r\nimport './contador_de_votos.sol';\r\nimport './verificador_de_vigencias.sol';\r\n\r\ncontract autorizador_de_electores{\r\n    // Rinkeby: \r\n    // Ropsten: \r\n    // TestRPC: \r\n    \r\n    // Al desplegar este contrato se creará un índice de direcciones de cuentas\r\n    // de electores que han sido marcados por haber emitido un único voto.\r\n    mapping(bytes => bool) marca_de_emision_de_voto_desde_bytes;\r\n\r\n    /*  \r\n    El presente contrato se hará referencia a la instancia de otro contrato \r\n    llamado */contador_de_votos/*, y para accesar a sus funciones se hará \r\n    referencia a la instancia de dicho contrato por medio de un identificador\r\n    llamado \"*/uso_de_contador_de_votos_para;/*.\r\n    \r\n    El presente contrato se hará referencia a la instancia de otro contrato \r\n    llamado */verificador_de_vigencias/*, y para accesar a sus funciones se hará \r\n    referencia a la instancia de dicho contrato por medio de un identificador\r\n    llamado \"*/uso_de_verificador_de_vigencias_para;/*.\r\n    */\r\n\r\n    constructor(\r\n        address donde_reside_el_contador_de_votos,\r\n        address donde_reside_el_verificador_de_vigencias\r\n    ) \r\n    public{\r\n        /*  \r\n        Dicho identificador hace referencia a la única copia del contrato llamado\r\n        */uso_de_contador_de_votos_para/* \r\n        la única copia */=/* del contrato */contador_de_votos/* \r\n        que se alojará en la dirección */(donde_reside_el_contador_de_votos);/*\r\n        de la red Ropsten de Ethereum.\r\n        \r\n        Se hará */uso_de_verificador_de_vigencias_para/* \r\n        la única copia */=/* del contrato */verificador_de_vigencias/*\r\n        que se alojará en la dirección */(donde_reside_el_verificador_de_vigencias);/*\r\n        de la red Ropsten de Ethereum. \r\n        */\r\n    }\r\n\r\n    function procesar_voto(string por_el_candidato, bytes con_credencial)\r\n    external{\r\n        \r\n        if(\r\n            marca_de_emision_de_voto_desde_bytes[con_credencial] == false\r\n        ){\r\n            uso_de_contador_de_votos_para.contabilizar_voto(por_el_candidato);\r\n            marca_de_emision_de_voto_desde_bytes[con_credencial] = true;\r\n            emit elector_autorizado(con_credencial);\r\n        }\r\n        else\r\n        {\r\n            emit elector_vetado(\"haber emitido ya un voto\",con_credencial);\r\n        }\r\n    }\r\n\r\n    event elector_autorizado(\r\n        bytes al_digerir_su_credencial_se_obtuvo\r\n    );\r\n    \r\n    event elector_vetado(\r\n        string a_causa_de,\r\n        bytes al_digerir_su_credencial_se_obtuvo\r\n    );\r\n}",
  "sourcePath": "C:\\Users\\carlo\\Desktop\\sentiment.ofnation\\contracts\\autorizador_de_electores.sol",
  "compiler": {
    "name": "solc",
    "version": "0.4.24+commit.e67f0147.Emscripten.clang"
  },
  "schemaVersion": "2.0.0",
  "updatedAt": "2018-06-20T06:57:17.805Z"
}