{
  "contractName": "autorizador_de_electores",
  "abi": [
    {
      "inputs": [
        {
          "name": "donde_reside_el_contador_de_votos",
          "type": "address"
        },
        {
          "name": "donde_reside_el_verificador_de_vigencias",
          "type": "address"
        }
      ],
      "payable": false,
      "stateMutability": "nonpayable",
      "type": "constructor"
    },
    {
      "anonymous": false,
      "inputs": [
        {
          "indexed": false,
          "name": "de_credencial",
          "type": "bytes"
        }
      ],
      "name": "elector_autorizado",
      "type": "event"
    },
    {
      "anonymous": false,
      "inputs": [
        {
          "indexed": false,
          "name": "a_causa_de",
          "type": "string"
        },
        {
          "indexed": false,
          "name": "de_credencial",
          "type": "bytes"
        }
      ],
      "name": "elector_no_tiene_permiso_de_votar",
      "type": "event"
    },
    {
      "constant": false,
      "inputs": [
        {
          "name": "por_el_candidato",
          "type": "bytes"
        },
        {
          "name": "de_credencial",
          "type": "bytes"
        }
      ],
      "name": "procesar_voto",
      "outputs": [],
      "payable": false,
      "stateMutability": "nonpayable",
      "type": "function"
    }
  ],
  "bytecode": "0x608060405234801561001057600080fd5b50604051604080610581833981018060405281019080805190602001909291908051906020019092919050505081600160006101000a81548173ffffffffffffffffffffffffffffffffffffffff021916908373ffffffffffffffffffffffffffffffffffffffff16021790555080600260006101000a81548173ffffffffffffffffffffffffffffffffffffffff021916908373ffffffffffffffffffffffffffffffffffffffff16021790555050506104b1806100d06000396000f300608060405260043610610041576000357c0100000000000000000000000000000000000000000000000000000000900463ffffffff1680639cd9638114610046575b600080fd5b34801561005257600080fd5b50610097600480360381019080803590602001908201803590602001919091929391929390803590602001908201803590602001919091929391929390505050610099565b005b600260009054906101000a900473ffffffffffffffffffffffffffffffffffffffff1673ffffffffffffffffffffffffffffffffffffffff16635c460f1a83836040518363ffffffff167c01000000000000000000000000000000000000000000000000000000000281526004018080602001828103825284848281815260200192508082843782019150509350505050602060405180830381600087803b15801561014457600080fd5b505af1158015610158573d6000803e3d6000fd5b505050506040513d602081101561016e57600080fd5b8101908080519060200190929190505050156103f457600015156000838360405180838380828437820191505092505050908152602001604051809103902060009054906101000a900460ff161515141561033e57600160009054906101000a900473ffffffffffffffffffffffffffffffffffffffff1673ffffffffffffffffffffffffffffffffffffffff1663df5c9d8985856040518363ffffffff167c01000000000000000000000000000000000000000000000000000000000281526004018080602001828103825284848281815260200192508082843782019150509350505050602060405180830381600087803b15801561026e57600080fd5b505af1158015610282573d6000803e3d6000fd5b505050506040513d602081101561029857600080fd5b81019080805190602001909291905050505060016000838360405180838380828437820191505092505050908152602001604051809103902060006101000a81548160ff0219169083151502179055507f93f46557cfd3cb0994339f8c06ba6a152d3783fe5379fa157caa984187c681db8282604051808060200182810382528484828181526020019250808284378201915050935050505060405180910390a16103ef565b7fdf6facba066d49c5e638b167f43224fb2552bdf9a981eaf8c0431fd78b7136e78282604051808060200180602001838103835260258152602001807f686162657220656d697469646f20796120756e20766f746f2068616369656e6481526020017f6f2075736f0000000000000000000000000000000000000000000000000000008152506040018381038252858582818152602001925080828437820191505094505050505060405180910390a15b61047f565b7fdf6facba066d49c5e638b167f43224fb2552bdf9a981eaf8c0431fd78b7136e782826040518080602001806020018381038352601e8152602001807f6e6f206861626572736520636f6d70726f6261646f20766967656e63696100008152506020018381038252858582818152602001925080828437820191505094505050505060405180910390a15b505050505600a165627a7a72305820449d28eb3f4f344fe753ae9d0cd80c2d3135848bd4ff26ec9e73e100b1be8c8f0029",
  "source": "pragma solidity ^0.4.17;\r\n\r\nimport './contador_de_votos.sol';\r\nimport './verificador_de_vigencias.sol';\r\n\r\ncontract autorizador_de_electores{\r\n    // Rinkeby: \r\n    // Ropsten: \r\n    // TestRPC: \r\n    \r\n    // Al desplegar este contrato se creará un índice de direcciones de cuentas\r\n    // de electores que han sido marcados por haber emitido un único voto.\r\n    mapping(bytes => bool) marca_de_emision_de_voto_desde_bytes;\r\n\r\n    /*  El presente contrato se hará referencia a la instancia de otro contrato \r\n        llamado */contador_de_votos/*, y para accesar a sus funciones se hará \r\n        referencia a la instancia de dicho contrato por medio de un identificador\r\n        llamado \"*/uso_de_contador_de_votos_para;/*.\r\n        \r\n        El presente contrato se hará referencia a la instancia de otro contrato \r\n        llamado */verificador_de_vigencias/*, y para accesar a sus funciones se hará \r\n        referencia a la instancia de dicho contrato por medio de un identificador\r\n        llamado \"*/uso_de_verificador_de_vigencias_para;/*.\r\n    */\r\n\r\n    constructor(\r\n        address donde_reside_el_contador_de_votos,\r\n        address donde_reside_el_verificador_de_vigencias\r\n    ) \r\n    public{\r\n    /*  Dicho identificador hace referencia a la única copia del contrato llamado\r\n        */uso_de_contador_de_votos_para/* \r\n        la única copia del contrato*/ = /* llamado */contador_de_votos/* \r\n        que se alojará en la dirección */(donde_reside_el_contador_de_votos);/*\r\n        de la red Ropsten de Ethereum.\r\n        \r\n        Se hará */uso_de_verificador_de_vigencias_para/* \r\n        la única copia del contrato*/ = /* llamado */verificador_de_vigencias/*\r\n        que se alojará en la dirección */(donde_reside_el_verificador_de_vigencias);/*\r\n        de la red Ropsten de Ethereum. \r\n    */\r\n    }\r\n\r\n    function procesar_voto(bytes por_el_candidato, bytes de_credencial)\r\n    external{\r\n        \r\n        if(uso_de_verificador_de_vigencias_para.consultar_vigencia(de_credencial))\r\n            if(marca_de_emision_de_voto_desde_bytes[de_credencial] == false){\r\n                uso_de_contador_de_votos_para.contabilizar_voto(por_el_candidato);\r\n                marca_de_emision_de_voto_desde_bytes[de_credencial] = true;\r\n                emit elector_autorizado(de_credencial);\r\n            }\r\n            else\r\n            {\r\n                emit elector_no_tiene_permiso_de_votar(\"haber emitido ya un voto haciendo uso\",de_credencial);\r\n            }\r\n        else\r\n        {\r\n            emit elector_no_tiene_permiso_de_votar(\"no haberse comprobado vigencia\",de_credencial);\r\n        }\r\n    }\r\n\r\n    event elector_autorizado(\r\n        bytes de_credencial\r\n    );\r\n    \r\n    event elector_no_tiene_permiso_de_votar(\r\n        string a_causa_de,\r\n        bytes de_credencial\r\n    );\r\n}",
  "sourcePath": "C:\\Users\\carlo\\Desktop\\sentiment.ofnation\\contracts\\autorizador_de_electores.sol",
  "compiler": {
    "name": "solc",
    "version": "0.4.24+commit.e67f0147.Emscripten.clang"
  },
  "schemaVersion": "2.0.0",
  "updatedAt": "2018-06-20T23:17:30.797Z"
}