{
  "contractName": "contador_de_votos",
  "abi": [
    {
      "inputs": [
        {
          "name": "donde_reside_el_guardador_de_mensajes",
          "type": "address"
        }
      ],
      "payable": false,
      "stateMutability": "nonpayable",
      "type": "constructor"
    },
    {
      "anonymous": false,
      "inputs": [
        {
          "indexed": false,
          "name": "por_candidato_de_apellidos",
          "type": "string"
        },
        {
          "indexed": false,
          "name": "cuyo_conteo_incremento_a",
          "type": "uint24"
        }
      ],
      "name": "voto_emitido",
      "type": "event"
    },
    {
      "constant": false,
      "inputs": [
        {
          "name": "del_candidato",
          "type": "string"
        }
      ],
      "name": "contabilizar_voto",
      "outputs": [
        {
          "name": "",
          "type": "uint24"
        }
      ],
      "payable": false,
      "stateMutability": "nonpayable",
      "type": "function"
    },
    {
      "constant": true,
      "inputs": [
        {
          "name": "del_candidato",
          "type": "string"
        }
      ],
      "name": "consultar_conteo",
      "outputs": [
        {
          "name": "",
          "type": "uint24"
        }
      ],
      "payable": false,
      "stateMutability": "view",
      "type": "function"
    }
  ],
  "bytecode": "0x608060405234801561001057600080fd5b506040516020806104978339810180604052810190808051906020019092919050505060008060405180807f416e6179610000000000000000000000000000000000000000000000000000008152506005019050908152602001604051809103902060006101000a81548162ffffff021916908362ffffff16021790555060008060405180807f4cc3b370657a00000000000000000000000000000000000000000000000000008152506006019050908152602001604051809103902060006101000a81548162ffffff021916908362ffffff16021790555060008060405180807f4d656164650000000000000000000000000000000000000000000000000000008152506005019050908152602001604051809103902060006101000a81548162ffffff021916908362ffffff16021790555060008060405180807f526f6472c3ad6775657a00000000000000000000000000000000000000000000815250600a019050908152602001604051809103902060006101000a81548162ffffff021916908362ffffff16021790555080600160006101000a81548173ffffffffffffffffffffffffffffffffffffffff021916908373ffffffffffffffffffffffffffffffffffffffff160217905550506102a7806101f06000396000f30060806040526004361061004c576000357c0100000000000000000000000000000000000000000000000000000000900463ffffffff168063ab9f947414610051578063ede0e155146100d8575b600080fd5b34801561005d57600080fd5b506100b8600480360381019080803590602001908201803590602001908080601f0160208091040260200160405190810160405280939291908181526020018383808284378201915050505050509192919290505050610131565b604051808262ffffff1662ffffff16815260200191505060405180910390f35b3480156100e457600080fd5b506101116004803603810190808035906020019082018035906020019190919293919293905050506101b4565b604051808262ffffff1662ffffff16815260200191505060405180910390f35b600080826040518082805190602001908083835b60208310151561016a5780518252602082019150602081019050602083039250610145565b6001836020036101000a038019825116818451168082178552505050505050905001915050908152602001604051809103902060009054906101000a900462ffffff169050919050565b60008060008484604051808383808284378201915050925050509081526020016040518091039020600081819054906101000a900462ffffff1660010191906101000a81548162ffffff021916908362ffffff160217905590507fd4b518c8f4b0923fc2f81e790e78f329ee46a64021ea8d55cfc52585c2a5a4c484848360405180806020018362ffffff1662ffffff1681526020018281038252858582818152602001925080828437820191505094505050505060405180910390a180915050929150505600a165627a7a723058209cf2af91b93f8717410131f0fa6ff16b7158939374fc1096f2dcb99c36a3f2960029",
  "source": "pragma solidity ^0.4.17;\r\n\r\nimport './guardador_de_mensajes.sol';\r\n\r\ncontract contador_de_votos{\r\n    // Rinkeby: \r\n    // Ropsten: \r\n    // TestRPC: \r\n    \r\n    // Al desplegar este contrato se creará una tabla de conteos para cada candidato\r\n    // así como el voto nulo.\r\n    mapping(string => uint24) conteo_de_candidato_con_apellido;\r\n    \r\n    guardador_de_mensajes usar_guardador_de_mensajes_para;\r\n\r\n    // La llave de la tabla constará del primer apellido de cada uno en formato de string.\r\n    // Todos los conteos serán iguales a cero al momento del despliegue del contrato.\r\n    constructor(address donde_reside_el_guardador_de_mensajes) public{\r\n        conteo_de_candidato_con_apellido[\"Anaya\"]     = 0;\r\n        conteo_de_candidato_con_apellido[\"López\"]     = 0;\r\n        conteo_de_candidato_con_apellido[\"Meade\"]     = 0;\r\n        conteo_de_candidato_con_apellido[\"Rodríguez\"] = 0;\r\n        usar_guardador_de_mensajes_para = guardador_de_mensajes(donde_reside_el_guardador_de_mensajes);\r\n    }\r\n    \r\n    // La llamada para la contabilidad de un voto será emitida por el\r\n    // contrato de marcado de votantes, el cual realizará la llamada después\r\n    // de haber marcado al votante por haber emitido un voto.\r\n    function contabilizar_voto(string del_candidato)\r\n    external returns(uint24){\r\n        \r\n        // Esta función recordará el conteo actualizado del candidato para\r\n        // usarlo posteriormente, a la hora de emitir una notificación para toda la red.\r\n        uint24 conteo_de_votos_del_candidato = \r\n        // El conteo del candidato se habrá de actualizar antes de ser recordado.\r\n        ++ conteo_de_candidato_con_apellido[del_candidato];\r\n        \r\n        // Se emitirá una notificación en la red sobre el cambio en el conteo\r\n        // del candidato especificado y un mensaje adjunto para la ciudadanía.\r\n        emit voto_emitido(\r\n            del_candidato,\r\n            conteo_de_votos_del_candidato\r\n        );\r\n        \r\n        // Se devolverá como valor de salida el conteo de votos por el candidato.\r\n        return conteo_de_votos_del_candidato;\r\n    }\r\n\r\n    function consultar_conteo(string del_candidato)\r\n    public view returns(uint24){\r\n        return conteo_de_candidato_con_apellido[del_candidato];\r\n    }\r\n\r\n    // El evento emitido será un objeto JSON\r\n    // cuya información podrá ser indexada\r\n    // por medio de las siguientes llaves de texto.\r\n    event voto_emitido(\r\n        string por_candidato_de_apellidos,\r\n        uint24 cuyo_conteo_incremento_a\r\n    );\r\n\r\n}",
  "sourcePath": "C:\\Users\\carlo\\Desktop\\sentiment.ofnation\\contracts\\contador_de_votos.sol",
  "compiler": {
    "name": "solc",
    "version": "0.4.24+commit.e67f0147.Emscripten.clang"
  },
  "schemaVersion": "2.0.0",
  "updatedAt": "2018-06-20T06:57:17.793Z"
}