{
  "contractName": "guardador_de_mensajes",
  "abi": [
    {
      "inputs": [],
      "payable": false,
      "stateMutability": "nonpayable",
      "type": "constructor"
    },
    {
      "constant": false,
      "inputs": [
        {
          "name": "el_mensaje",
          "type": "string"
        }
      ],
      "name": "guardar",
      "outputs": [],
      "payable": false,
      "stateMutability": "nonpayable",
      "type": "function"
    },
    {
      "constant": true,
      "inputs": [],
      "name": "obtener_indice_del_ultimo_mensaje",
      "outputs": [
        {
          "name": "",
          "type": "uint256"
        }
      ],
      "payable": false,
      "stateMutability": "view",
      "type": "function"
    },
    {
      "constant": true,
      "inputs": [
        {
          "name": "en_el_indice",
          "type": "uint256"
        }
      ],
      "name": "obtener_mensaje",
      "outputs": [
        {
          "name": "",
          "type": "string"
        }
      ],
      "payable": false,
      "stateMutability": "view",
      "type": "function"
    }
  ],
  "bytecode": "0x608060405234801561001057600080fd5b50600060018190555061034c806100286000396000f300608060405260043610610057576000357c0100000000000000000000000000000000000000000000000000000000900463ffffffff16806318a006341461005c5780634d16dfbd14610102578063f8ac37c51461012d575b600080fd5b34801561006857600080fd5b5061008760048036038101908080359060200190929190505050610168565b6040518080602001828103825283818151815260200191508051906020019080838360005b838110156100c75780820151818401526020810190506100ac565b50505050905090810190601f1680156100f45780820380516001836020036101000a031916815260200191505b509250505060405180910390f35b34801561010e57600080fd5b50610117610223565b6040518082815260200191505060405180910390f35b34801561013957600080fd5b5061016660048036038101908080359060200190820180359060200191909192939192939050505061022d565b005b606060008281548110151561017957fe5b906000526020600020018054600181600116156101000203166002900480601f0160208091040260200160405190810160405280929190818152602001828054600181600116156101000203166002900480156102175780601f106101ec57610100808354040283529160200191610217565b820191906000526020600020905b8154815290600101906020018083116101fa57829003601f168201915b50505050509050919050565b6000600154905090565b6001600083839091806001815401808255809150509060018203906000526020600020016000909192939091929390919290919250919061026f92919061027b565b50036001819055505050565b828054600181600116156101000203166002900490600052602060002090601f016020900481019282601f106102bc57803560ff19168380011785556102ea565b828001600101855582156102ea579182015b828111156102e95782358255916020019190600101906102ce565b5b5090506102f791906102fb565b5090565b61031d91905b80821115610319576000816000905550600101610301565b5090565b905600a165627a7a72305820454d7c6b54972556863f8c7d68aa639b6222e61383e62745a6b06b188e7bfb770029",
  "source": "pragma solidity ^0.4.17;\r\n\r\ncontract guardador_de_mensajes{\r\n    // Rinkeby: 0x1088843ad1ea8667ebfa8c7c1734f106274f4774\r\n    // Ropsten: \r\n    // TestRPC: \r\n    \r\n    string[]    mensajes_de_la_ciudadania;\r\n    // Para extraer todos los mensajes se registrará un conteo de mensajes la lista. \r\n    uint        indice_del_ultimo_mensaje;\r\n    \r\n    constructor() public{\r\n        indice_del_ultimo_mensaje = 0;\r\n    }\r\n    \r\n    function guardar(string el_mensaje)\r\n    external{\r\n        indice_del_ultimo_mensaje = mensajes_de_la_ciudadania.push(el_mensaje)-1;\r\n    }\r\n    \r\n    function obtener_indice_del_ultimo_mensaje()\r\n    external view returns(uint){\r\n        return indice_del_ultimo_mensaje;\r\n    }\r\n    \r\n    function obtener_mensaje(uint en_el_indice)\r\n    external view returns(string){\r\n        return mensajes_de_la_ciudadania[en_el_indice];\r\n    }\r\n    \r\n}",
  "sourcePath": "C:\\Users\\carlo\\Desktop\\sentiment.ofnation\\contracts\\guardador_de_mensajes.sol",
  "compiler": {
    "name": "solc",
    "version": "0.4.24+commit.e67f0147.Emscripten.clang"
  },
  "schemaVersion": "2.0.0",
  "updatedAt": "2018-06-20T06:57:17.797Z"
}