{
  "contractName": "verificador_de_vigencias",
  "abi": [
    {
      "anonymous": false,
      "inputs": [
        {
          "indexed": false,
          "name": "para_credencial",
          "type": "bytes"
        }
      ],
      "name": "vigencia_testificada",
      "type": "event"
    },
    {
      "anonymous": false,
      "inputs": [
        {
          "indexed": false,
          "name": "para_credencial",
          "type": "bytes"
        },
        {
          "indexed": false,
          "name": "cuya_vigencia_es",
          "type": "bool"
        }
      ],
      "name": "vigencia_consultada",
      "type": "event"
    },
    {
      "constant": false,
      "inputs": [
        {
          "name": "de_la_credencial",
          "type": "bytes"
        }
      ],
      "name": "consultar_vigencia",
      "outputs": [
        {
          "name": "",
          "type": "bool"
        }
      ],
      "payable": false,
      "stateMutability": "nonpayable",
      "type": "function"
    },
    {
      "constant": false,
      "inputs": [
        {
          "name": "de_la_credencial",
          "type": "bytes"
        }
      ],
      "name": "testificar_vigencia",
      "outputs": [],
      "payable": false,
      "stateMutability": "nonpayable",
      "type": "function"
    }
  ],
  "bytecode": "0x608060405234801561001057600080fd5b5061023d806100206000396000f30060806040526004361061004c576000357c0100000000000000000000000000000000000000000000000000000000900463ffffffff16806356a8bd1b146100515780635c460f1a1461008c575b600080fd5b34801561005d57600080fd5b5061008a6004803603810190808035906020019082018035906020019190919293919293905050506100df565b005b34801561009857600080fd5b506100c5600480360381019080803590602001908201803590602001919091929391929390505050610172565b604051808215151515815260200191505060405180910390f35b60016000838360405180838380828437820191505092505050908152602001604051809103902060006101000a81548160ff0219169083151502179055507f3ca77ec3c2cfd0f26b0c4e75c6bfa925e68d5b07469043f40586f4f8accbd9028282604051808060200182810382528484828181526020019250808284378201915050935050505060405180910390a15050565b6000806000848460405180838380828437820191505092505050908152602001604051809103902060009054906101000a900460ff1690507f56492e79e7689ac3a5d1d81fd4af2a49216b4ce7fead425de3e95ba602a602208484836040518080602001831515151581526020018281038252858582818152602001925080828437820191505094505050505060405180910390a180915050929150505600a165627a7a72305820fca5c28bff5862a0bfbc8f05a5f2d0e4aa31168c2e206194ca35566694c8d6c20029",
  "source": "pragma solidity ^0.4.17;\r\n\r\ncontract verificador_de_vigencias{\r\n    // Rinkeby: 0x35a4bdbc6488f5066228b1c99c7fde5fbbd2639c\r\n    // Ropsten: \r\n    // TestRPC: \r\n    \r\n    mapping(bytes => bool) vigencia_desde_bytes;    \r\n\r\n    function consultar_vigencia(bytes de_la_credencial)\r\n    external returns(bool){\r\n        bool resultado = vigencia_desde_bytes[de_la_credencial];\r\n        emit vigencia_consultada(de_la_credencial,resultado);\r\n        return resultado;\r\n    }\r\n\r\n    function testificar_vigencia(bytes de_la_credencial)\r\n    external{\r\n        vigencia_desde_bytes[de_la_credencial] = true;\r\n        emit vigencia_testificada(de_la_credencial);\r\n    }\r\n\r\n    event vigencia_testificada(\r\n        bytes para_credencial\r\n    );\r\n\r\n    event vigencia_consultada(\r\n        bytes para_credencial,\r\n        bool  cuya_vigencia_es\r\n    );\r\n}",
  "sourcePath": "C:\\Users\\carlo\\Desktop\\sentiment.ofnation\\contracts\\verificador_de_vigencias.sol",
  "compiler": {
    "name": "solc",
    "version": "0.4.24+commit.e67f0147.Emscripten.clang"
  },
  "schemaVersion": "2.0.0",
  "updatedAt": "2018-06-20T06:57:17.785Z"
}